{
  "transactions": [
    {
      "hash": "0x81290eacf8fee7b20ef6d876686109d91deb08deb72f57f73015a067622fb19e",
      "transactionType": "CALL",
      "contractName": null,
      "contractAddress": "0x1c4d0595017e9840a3e79ab5ba629836c4f8bd92",
      "function": "emitEvent((bytes32,bytes32,uint256,uint256,uint256,uint256,uint256,uint256),(uint256,uint256,uint256,uint256,uint256))",
      "arguments": [
        "(0x730fff4bf637f8b6cfafd08f4d86be035c0b7adb7c53a8c70056613785624518, 0x22a13e9d60cd71ab10984189e5b9f33c66149ef69a202a5d3aeb545b52976772, 855485709712576571314153976753789112235418076081, 855485709712576571314153976753789112235418076081, 19551945435078646265689162860222206903555313534, 100000000, 1000000000000000, 47291223424583991283558983078234174949288268952378050344407475347531484889088)",
        "(855485709712576571314153976753789112235418076081, 99000000, 0, 1000000000000000, 1440002)"
      ],
      "transaction": {
        "from": "0x95d94e5370d9c2522dd6a4d7e670f3ec582643b1",
        "to": "0x1c4d0595017e9840a3e79ab5ba629836c4f8bd92",
        "gas": "0xa040",
        "value": "0x0",
        "input": "0x39e067eb730fff4bf637f8b6cfafd08f4d86be035c0b7adb7c53a8c7005661378562451822a13e9d60cd71ab10984189e5b9f33c66149ef69a202a5d3aeb545b5297677200000000000000000000000095d94e5370d9c2522dd6a4d7e670f3ec582643b100000000000000000000000095d94e5370d9c2522dd6a4d7e670f3ec582643b1000000000000000000000000036cbd53842c5426634e7929541ec2318f3dcf7e0000000000000000000000000000000000000000000000000000000005f5e10000000000000000000000000000000000000000000000000000038d7ea4c68000688de2480000000000000000000000000000000000000000000000000000000000000000000000000000000095d94e5370d9c2522dd6a4d7e670f3ec582643b10000000000000000000000000000000000000000000000000000000005e69ec0000000000000000000000000000000000000000000000000000000000000000000000000000000000000000000000000000000000000000000038d7ea4c68000000000000000000000000000000000000000000000000000000000000015f902",
        "nonce": "0x2",
        "chainId": "0x14a34"
      },
      "additionalContracts": [],
      "isFixedGasLimit": false
    }
  ],
  "receipts": [
    {
      "status": "0x1",
      "cumulativeGasUsed": "0xb891e2",
      "logs": [
        {
          "address": "0x1c4d0595017e9840a3e79ab5ba629836c4f8bd92",
          "topics": [
            "0x0e534c62f0afd2fa0f0fa71198e8aa2d549f24daf2bb47de0d5486c7ce9288ca"
          ],
          "data": "0x730fff4bf637f8b6cfafd08f4d86be035c0b7adb7c53a8c7005661378562451822a13e9d60cd71ab10984189e5b9f33c66149ef69a202a5d3aeb545b5297677200000000000000000000000095d94e5370d9c2522dd6a4d7e670f3ec582643b100000000000000000000000095d94e5370d9c2522dd6a4d7e670f3ec582643b1000000000000000000000000036cbd53842c5426634e7929541ec2318f3dcf7e0000000000000000000000000000000000000000000000000000000005f5e10000000000000000000000000000000000000000000000000000038d7ea4c68000688de2480000000000000000000000000000000000000000000000000000000000000000000000000000000095d94e5370d9c2522dd6a4d7e670f3ec582643b10000000000000000000000000000000000000000000000000000000005e69ec0000000000000000000000000000000000000000000000000000000000000000000000000000000000000000000000000000000000000000000038d7ea4c68000000000000000000000000000000000000000000000000000000000000015f902",
          "blockHash": "0xfb019e66322ef547e9ca67798a62de28265c34e90550dc7810afddbc5763abf4",
          "blockNumber": "0x1bd41b7",
          "blockTimestamp": "0x688de24e",
          "transactionHash": "0x81290eacf8fee7b20ef6d876686109d91deb08deb72f57f73015a067622fb19e",
          "transactionIndex": "0x24",
          "logIndex": "0x1cf",
          "removed": false
        }
      ],
      "logsBloom": "0x00000000000000000000000000000000000000000000000000000000000000000000000000000000000000000000000000000000000000000000000000000000000000000000000000000000000000000000000000000000000000000000000000000000000000000000000000000000010000000000000000000000000000000000000000000000000000000000002000000000000000000000000000000004000000000000000000000000000000000000000000000000000000000000000000000000000000000400000000000000000000000000000000000000000000000000000000000200000000000040000000000000000000000000000000000000",
      "type": "0x0",
      "transactionHash": "0x81290eacf8fee7b20ef6d876686109d91deb08deb72f57f73015a067622fb19e",
      "transactionIndex": "0x24",
      "blockHash": "0xfb019e66322ef547e9ca67798a62de28265c34e90550dc7810afddbc5763abf4",
      "blockNumber": "0x1bd41b7",
      "gasUsed": "0x76b6",
      "effectiveGasPrice": "0xf4281",
      "from": "0x95d94e5370d9c2522dd6a4d7e670f3ec582643b1",
      "to": "0x1c4d0595017e9840a3e79ab5ba629836c4f8bd92",
      "contractAddress": null,
      "l1BaseFeeScalar": "0x44d",
      "l1BlobBaseFee": "0x1",
      "l1BlobBaseFeeScalar": "0xa118b",
      "l1Fee": "0x4a5b530",
      "l1GasPrice": "0x15486f3",
      "l1GasUsed": "0xc65"
    }
  ],
  "libraries": [],
  "pending": [],
  "returns": {},
  "timestamp": 1754128973,
  "chain": 84532,
  "commit": "9bbbb2d"
}