{
  "transactions": [
    {
      "hash": "0x743583bdf5e57e528aa048fe6ec41682f09d4c2112ba05e24107b0c1b33a9195",
      "transactionType": "CALL",
      "contractName": null,
      "contractAddress": "0x1c4d0595017e9840a3e79ab5ba629836c4f8bd92",
      "function": "emitEvent((bytes32,bytes32,uint256,uint256,uint256,uint256,uint256,uint256),(uint256,uint256,uint256,uint256,uint256))",
      "arguments": [
        "(0x730fff4bf637f8b6cfafd08f4d86be035c0b7adb7c53a8c70056613785624518, 0x22a13e9d60cd71ab10984189e5b9f33c66149ef69a202a5d3aeb545b52976772, 855485709712576571314153976753789112235418076081, 855485709712576571314153976753789112235418076081, 19551945435078646265689162860222206903555313534, 100000000, 1000000000000000, 47291229140092684719494619547641373397449971763452667923008841341496857722880)",
        "(855485709712576571314153976753789112235418076081, 99000000, 0, 1000000000000000, 1440002)"
      ],
      "transaction": {
        "from": "0x95d94e5370d9c2522dd6a4d7e670f3ec582643b1",
        "to": "0x1c4d0595017e9840a3e79ab5ba629836c4f8bd92",
        "gas": "0xa040",
        "value": "0x0",
        "input": "0x39e067eb730fff4bf637f8b6cfafd08f4d86be035c0b7adb7c53a8c7005661378562451822a13e9d60cd71ab10984189e5b9f33c66149ef69a202a5d3aeb545b5297677200000000000000000000000095d94e5370d9c2522dd6a4d7e670f3ec582643b100000000000000000000000095d94e5370d9c2522dd6a4d7e670f3ec582643b1000000000000000000000000036cbd53842c5426634e7929541ec2318f3dcf7e0000000000000000000000000000000000000000000000000000000005f5e10000000000000000000000000000000000000000000000000000038d7ea4c68000688de31c0000000000000000000000000000000000000000000000000000000000000000000000000000000095d94e5370d9c2522dd6a4d7e670f3ec582643b10000000000000000000000000000000000000000000000000000000005e69ec0000000000000000000000000000000000000000000000000000000000000000000000000000000000000000000000000000000000000000000038d7ea4c68000000000000000000000000000000000000000000000000000000000000015f902",
        "nonce": "0x3",
        "chainId": "0x14a34"
      },
      "additionalContracts": [],
      "isFixedGasLimit": false
    }
  ],
  "receipts": [
    {
      "status": "0x1",
      "cumulativeGasUsed": "0x14229b",
      "logs": [
        {
          "address": "0x1c4d0595017e9840a3e79ab5ba629836c4f8bd92",
          "topics": [
            "0x0e534c62f0afd2fa0f0fa71198e8aa2d549f24daf2bb47de0d5486c7ce9288ca"
          ],
          "data": "0x730fff4bf637f8b6cfafd08f4d86be035c0b7adb7c53a8c7005661378562451822a13e9d60cd71ab10984189e5b9f33c66149ef69a202a5d3aeb545b5297677200000000000000000000000095d94e5370d9c2522dd6a4d7e670f3ec582643b100000000000000000000000095d94e5370d9c2522dd6a4d7e670f3ec582643b1000000000000000000000000036cbd53842c5426634e7929541ec2318f3dcf7e0000000000000000000000000000000000000000000000000000000005f5e10000000000000000000000000000000000000000000000000000038d7ea4c68000688de31c0000000000000000000000000000000000000000000000000000000000000000000000000000000095d94e5370d9c2522dd6a4d7e670f3ec582643b10000000000000000000000000000000000000000000000000000000005e69ec0000000000000000000000000000000000000000000000000000000000000000000000000000000000000000000000000000000000000000000038d7ea4c68000000000000000000000000000000000000000000000000000000000000015f902",
          "blockHash": "0x9e510092ba52a7581e062ccfb9df757b6fbd6cd13b5e62af99142cf4e6a664bb",
          "blockNumber": "0x1bd4221",
          "blockTimestamp": "0x688de322",
          "transactionHash": "0x743583bdf5e57e528aa048fe6ec41682f09d4c2112ba05e24107b0c1b33a9195",
          "transactionIndex": "0x9",
          "logIndex": "0xf",
          "removed": false
        }
      ],
      "logsBloom": "0x00000000000000000000000000000000000000000000000000000000000000000000000000000000000000000000000000000000000000000000000000000000000000000000000000000000000000000000000000000000000000000000000000000000000000000000000000000000010000000000000000000000000000000000000000000000000000000000002000000000000000000000000000000004000000000000000000000000000000000000000000000000000000000000000000000000000000000400000000000000000000000000000000000000000000000000000000000200000000000040000000000000000000000000000000000000",
      "type": "0x0",
      "transactionHash": "0x743583bdf5e57e528aa048fe6ec41682f09d4c2112ba05e24107b0c1b33a9195",
      "transactionIndex": "0x9",
      "blockHash": "0x9e510092ba52a7581e062ccfb9df757b6fbd6cd13b5e62af99142cf4e6a664bb",
      "blockNumber": "0x1bd4221",
      "gasUsed": "0x76b6",
      "effectiveGasPrice": "0xf4282",
      "from": "0x95d94e5370d9c2522dd6a4d7e670f3ec582643b1",
      "to": "0x1c4d0595017e9840a3e79ab5ba629836c4f8bd92",
      "contractAddress": null,
      "l1BaseFeeScalar": "0x44d",
      "l1BlobBaseFee": "0x1",
      "l1BlobBaseFeeScalar": "0xa118b",
      "l1Fee": "0x4754aad",
      "l1GasPrice": "0x146ab4b",
      "l1GasUsed": "0xc65"
    }
  ],
  "libraries": [],
  "pending": [],
  "returns": {},
  "timestamp": 1754129185,
  "chain": 84532,
  "commit": "9bbbb2d"
}