{
  "transactions": [
    {
      "hash": "0x8b6490b46c9a4ee7dc26d9d8144e1102df502941156af0b4204c06482c5d1048",
      "transactionType": "CALL",
      "contractName": null,
      "contractAddress": "0x1c4d0595017e9840a3e79ab5ba629836c4f8bd92",
      "function": "emitEvent((bytes32,bytes32,uint256,uint256,uint256,uint256,uint256,uint256),(uint256,uint256,uint256,uint256,uint256))",
      "arguments": [
        "(0xa38e925ebfd1c85e91145a716cb732a6f97f1ebf173771fded28ad57a73cb391, 0x62190cefa2cb134dfa9d764b211746472a9609909c6d0c99e222b4d0d98638bf, 855485709712576571314153976753789112235418076081, 855485709712576571314153976753789112235418076081, 19551945435078646265689162860222206903555313534, 5000000, 1000000000000000, 47291414678445648050197686446039202266548267734280583847228656296542592827392)",
        "(855485709712576571314153976753789112235418076081, 1700000, 0, 1000000000000000, 1440002)"
      ],
      "transaction": {
        "from": "0x95d94e5370d9c2522dd6a4d7e670f3ec582643b1",
        "to": "0x1c4d0595017e9840a3e79ab5ba629836c4f8bd92",
        "gas": "0xa040",
        "value": "0x0",
        "input": "0x39e067eba38e925ebfd1c85e91145a716cb732a6f97f1ebf173771fded28ad57a73cb39162190cefa2cb134dfa9d764b211746472a9609909c6d0c99e222b4d0d98638bf00000000000000000000000095d94e5370d9c2522dd6a4d7e670f3ec582643b100000000000000000000000095d94e5370d9c2522dd6a4d7e670f3ec582643b1000000000000000000000000036cbd53842c5426634e7929541ec2318f3dcf7e00000000000000000000000000000000000000000000000000000000004c4b4000000000000000000000000000000000000000000000000000038d7ea4c68000688dfdfe0000000000000000000000000000000000000000000000000000000000000000000000000000000095d94e5370d9c2522dd6a4d7e670f3ec582643b1000000000000000000000000000000000000000000000000000000000019f0a0000000000000000000000000000000000000000000000000000000000000000000000000000000000000000000000000000000000000000000038d7ea4c68000000000000000000000000000000000000000000000000000000000000015f902",
        "nonce": "0x11",
        "chainId": "0x14a34"
      },
      "additionalContracts": [],
      "isFixedGasLimit": false
    }
  ],
  "receipts": [
    {
      "status": "0x1",
      "cumulativeGasUsed": "0x5056f3",
      "logs": [
        {
          "address": "0x1c4d0595017e9840a3e79ab5ba629836c4f8bd92",
          "topics": [
            "0x0e534c62f0afd2fa0f0fa71198e8aa2d549f24daf2bb47de0d5486c7ce9288ca"
          ],
          "data": "0xa38e925ebfd1c85e91145a716cb732a6f97f1ebf173771fded28ad57a73cb39162190cefa2cb134dfa9d764b211746472a9609909c6d0c99e222b4d0d98638bf00000000000000000000000095d94e5370d9c2522dd6a4d7e670f3ec582643b100000000000000000000000095d94e5370d9c2522dd6a4d7e670f3ec582643b1000000000000000000000000036cbd53842c5426634e7929541ec2318f3dcf7e00000000000000000000000000000000000000000000000000000000004c4b4000000000000000000000000000000000000000000000000000038d7ea4c68000688dfdfe0000000000000000000000000000000000000000000000000000000000000000000000000000000095d94e5370d9c2522dd6a4d7e670f3ec582643b1000000000000000000000000000000000000000000000000000000000019f0a0000000000000000000000000000000000000000000000000000000000000000000000000000000000000000000000000000000000000000000038d7ea4c68000000000000000000000000000000000000000000000000000000000000015f902",
          "blockHash": "0x89dcb6c359c746ecf35f9a641801142cf3ba308f0b5b336fc8f560d23c16845a",
          "blockNumber": "0x1bd4f93",
          "transactionHash": "0x8b6490b46c9a4ee7dc26d9d8144e1102df502941156af0b4204c06482c5d1048",
          "transactionIndex": "0x9",
          "logIndex": "0x5e",
          "removed": false
        }
      ],
      "logsBloom": "0x00000000000000000000000000000000000000000000000000000000000000000000000000000000000000000000000000000000000000000000000000000000000000000000000000000000000000000000000000000000000000000000000000000000000000000000000000000000010000000000000000000000000000000000000000000000000000000000002000000000000000000000000000000004000000000000000000000000000000000000000000000000000000000000000000000000000000000400000000000000000000000000000000000000000000000000000000000200000000000040000000000000000000000000000000000000",
      "type": "0x0",
      "transactionHash": "0x8b6490b46c9a4ee7dc26d9d8144e1102df502941156af0b4204c06482c5d1048",
      "transactionIndex": "0x9",
      "blockHash": "0x89dcb6c359c746ecf35f9a641801142cf3ba308f0b5b336fc8f560d23c16845a",
      "blockNumber": "0x1bd4f93",
      "gasUsed": "0x76b6",
      "effectiveGasPrice": "0xf429d",
      "from": "0x95d94e5370d9c2522dd6a4d7e670f3ec582643b1",
      "to": "0x1c4d0595017e9840a3e79ab5ba629836c4f8bd92",
      "contractAddress": null,
      "l1BaseFeeScalar": "0x44d",
      "l1BlobBaseFee": "0x1",
      "l1BlobBaseFeeScalar": "0xa118b",
      "l1Fee": "0x3c1976",
      "l1GasPrice": "0x114642",
      "l1GasUsed": "0xc57"
    }
  ],
  "libraries": [],
  "pending": [],
  "returns": {},
  "timestamp": 1754136070,
  "chain": 84532,
  "commit": "9bbbb2d"
}