{
  "transactions": [
    {
      "hash": "0xc33b5816562e3a6d7295db4b806a74edd313c01b6640ca742dfdf58b221a2eee",
      "transactionType": "CALL",
      "contractName": null,
      "contractAddress": "0x1c4d0595017e9840a3e79ab5ba629836c4f8bd92",
      "function": "emitEvent((bytes32,bytes32,uint256,uint256,uint256,uint256,uint256,uint256),(uint256,uint256,uint256,uint256,uint256))",
      "arguments": [
        "(0x71566dbc3edee968aaf9b9c22942ccaa5b6dc6a8bf4292dbebebe28f941689cb, 0x5d8ed8a5ebfea6d7b7caa1f7988304dd0a2fcd488dc16ce422a2b810981b23ad, 855485709712576571314153976753789112235418076081, 855485709712576571314153976753789112235418076081, 19551945435078646265689162860222206903555313534, 5000000, 1000000000000000, 47291398610317434428416368824498210402848386246542508013047457558790884294656)",
        "(855485709712576571314153976753789112235418076081, 9500000, 0, 1000000000000000, 1440002)"
      ],
      "transaction": {
        "from": "0x95d94e5370d9c2522dd6a4d7e670f3ec582643b1",
        "to": "0x1c4d0595017e9840a3e79ab5ba629836c4f8bd92",
        "gas": "0xa040",
        "value": "0x0",
        "input": "0x39e067eb71566dbc3edee968aaf9b9c22942ccaa5b6dc6a8bf4292dbebebe28f941689cb5d8ed8a5ebfea6d7b7caa1f7988304dd0a2fcd488dc16ce422a2b810981b23ad00000000000000000000000095d94e5370d9c2522dd6a4d7e670f3ec582643b100000000000000000000000095d94e5370d9c2522dd6a4d7e670f3ec582643b1000000000000000000000000036cbd53842c5426634e7929541ec2318f3dcf7e00000000000000000000000000000000000000000000000000000000004c4b4000000000000000000000000000000000000000000000000000038d7ea4c68000688dfbaa0000000000000000000000000000000000000000000000000000000000000000000000000000000095d94e5370d9c2522dd6a4d7e670f3ec582643b1000000000000000000000000000000000000000000000000000000000090f560000000000000000000000000000000000000000000000000000000000000000000000000000000000000000000000000000000000000000000038d7ea4c68000000000000000000000000000000000000000000000000000000000000015f902",
        "nonce": "0xf",
        "chainId": "0x14a34"
      },
      "additionalContracts": [],
      "isFixedGasLimit": false
    }
  ],
  "receipts": [
    {
      "status": "0x1",
      "cumulativeGasUsed": "0x128625",
      "logs": [
        {
          "address": "0x1c4d0595017e9840a3e79ab5ba629836c4f8bd92",
          "topics": [
            "0x0e534c62f0afd2fa0f0fa71198e8aa2d549f24daf2bb47de0d5486c7ce9288ca"
          ],
          "data": "0x71566dbc3edee968aaf9b9c22942ccaa5b6dc6a8bf4292dbebebe28f941689cb5d8ed8a5ebfea6d7b7caa1f7988304dd0a2fcd488dc16ce422a2b810981b23ad00000000000000000000000095d94e5370d9c2522dd6a4d7e670f3ec582643b100000000000000000000000095d94e5370d9c2522dd6a4d7e670f3ec582643b1000000000000000000000000036cbd53842c5426634e7929541ec2318f3dcf7e00000000000000000000000000000000000000000000000000000000004c4b4000000000000000000000000000000000000000000000000000038d7ea4c68000688dfbaa0000000000000000000000000000000000000000000000000000000000000000000000000000000095d94e5370d9c2522dd6a4d7e670f3ec582643b1000000000000000000000000000000000000000000000000000000000090f560000000000000000000000000000000000000000000000000000000000000000000000000000000000000000000000000000000000000000000038d7ea4c68000000000000000000000000000000000000000000000000000000000000015f902",
          "blockHash": "0xb4dfee53a10f95ad570b6cb86b96ad807b0abb0bec7e25ec5b2a3be11e1a8ffb",
          "blockNumber": "0x1bd4e68",
          "blockTimestamp": "0x688dfbb0",
          "transactionHash": "0xc33b5816562e3a6d7295db4b806a74edd313c01b6640ca742dfdf58b221a2eee",
          "transactionIndex": "0x5",
          "logIndex": "0x30",
          "removed": false
        }
      ],
      "logsBloom": "0x00000000000000000000000000000000000000000000000000000000000000000000000000000000000000000000000000000000000000000000000000000000000000000000000000000000000000000000000000000000000000000000000000000000000000000000000000000000010000000000000000000000000000000000000000000000000000000000002000000000000000000000000000000004000000000000000000000000000000000000000000000000000000000000000000000000000000000400000000000000000000000000000000000000000000000000000000000200000000000040000000000000000000000000000000000000",
      "type": "0x0",
      "transactionHash": "0xc33b5816562e3a6d7295db4b806a74edd313c01b6640ca742dfdf58b221a2eee",
      "transactionIndex": "0x5",
      "blockHash": "0xb4dfee53a10f95ad570b6cb86b96ad807b0abb0bec7e25ec5b2a3be11e1a8ffb",
      "blockNumber": "0x1bd4e68",
      "gasUsed": "0x76b6",
      "effectiveGasPrice": "0xf429a",
      "from": "0x95d94e5370d9c2522dd6a4d7e670f3ec582643b1",
      "to": "0x1c4d0595017e9840a3e79ab5ba629836c4f8bd92",
      "contractAddress": null,
      "l1BaseFeeScalar": "0x44d",
      "l1BlobBaseFee": "0x1",
      "l1BlobBaseFeeScalar": "0xa118b",
      "l1Fee": "0x3020f8",
      "l1GasPrice": "0xdd566",
      "l1GasUsed": "0xc57"
    }
  ],
  "libraries": [],
  "pending": [],
  "returns": {},
  "timestamp": 1754135470,
  "chain": 84532,
  "commit": "9bbbb2d"
}