{
  "transactions": [
    {
      "hash": "0xe550ea678fa98e38c0a6a62378cb12965cbf91bd538624b366c0a253ee9d7f06",
      "transactionType": "CALL",
      "contractName": null,
      "contractAddress": "0x1c4d0595017e9840a3e79ab5ba629836c4f8bd92",
      "function": "emitEvent((bytes32,bytes32,uint256,uint256,uint256,uint256,uint256,uint256),(uint256,uint256,uint256,uint256,uint256))",
      "arguments": [
        "(0x174cfd0d86a2dda665d164a1ba77373a2d23dadfef3fdf393798b2a9902238d4, 0x8bfa3485600388375a3847311274b16da1611e3637f785b8a7ff80ab3ae4b08d, 855485709712576571314153976753789112235418076081, 855485709712576571314153976753789112235418076081, 19551945435078646265689162860222206903555313534, 5000000, 1000000000000000, 47291401521991674480685466648535839800968498999354105647429285517980791209984)",
        "(855485709712576571314153976753789112235418076081, 9500000, 0, 1000000000000000, 1440002)"
      ],
      "transaction": {
        "from": "0x95d94e5370d9c2522dd6a4d7e670f3ec582643b1",
        "to": "0x1c4d0595017e9840a3e79ab5ba629836c4f8bd92",
        "gas": "0xa040",
        "value": "0x0",
        "input": "0x39e067eb174cfd0d86a2dda665d164a1ba77373a2d23dadfef3fdf393798b2a9902238d48bfa3485600388375a3847311274b16da1611e3637f785b8a7ff80ab3ae4b08d00000000000000000000000095d94e5370d9c2522dd6a4d7e670f3ec582643b100000000000000000000000095d94e5370d9c2522dd6a4d7e670f3ec582643b1000000000000000000000000036cbd53842c5426634e7929541ec2318f3dcf7e00000000000000000000000000000000000000000000000000000000004c4b4000000000000000000000000000000000000000000000000000038d7ea4c68000688dfc160000000000000000000000000000000000000000000000000000000000000000000000000000000095d94e5370d9c2522dd6a4d7e670f3ec582643b1000000000000000000000000000000000000000000000000000000000090f560000000000000000000000000000000000000000000000000000000000000000000000000000000000000000000000000000000000000000000038d7ea4c68000000000000000000000000000000000000000000000000000000000000015f902",
        "nonce": "0x10",
        "chainId": "0x14a34"
      },
      "additionalContracts": [],
      "isFixedGasLimit": false
    }
  ],
  "receipts": [
    {
      "status": "0x1",
      "cumulativeGasUsed": "0x70284b",
      "logs": [
        {
          "address": "0x1c4d0595017e9840a3e79ab5ba629836c4f8bd92",
          "topics": [
            "0x0e534c62f0afd2fa0f0fa71198e8aa2d549f24daf2bb47de0d5486c7ce9288ca"
          ],
          "data": "0x174cfd0d86a2dda665d164a1ba77373a2d23dadfef3fdf393798b2a9902238d48bfa3485600388375a3847311274b16da1611e3637f785b8a7ff80ab3ae4b08d00000000000000000000000095d94e5370d9c2522dd6a4d7e670f3ec582643b100000000000000000000000095d94e5370d9c2522dd6a4d7e670f3ec582643b1000000000000000000000000036cbd53842c5426634e7929541ec2318f3dcf7e00000000000000000000000000000000000000000000000000000000004c4b4000000000000000000000000000000000000000000000000000038d7ea4c68000688dfc160000000000000000000000000000000000000000000000000000000000000000000000000000000095d94e5370d9c2522dd6a4d7e670f3ec582643b1000000000000000000000000000000000000000000000000000000000090f560000000000000000000000000000000000000000000000000000000000000000000000000000000000000000000000000000000000000000000038d7ea4c68000000000000000000000000000000000000000000000000000000000000015f902",
          "blockHash": "0xd0b19b8fc91c29bcfb267e15a5d2ec306ebcfddf85d9970e16b03cf5ca0a23b3",
          "blockNumber": "0x1bd4e9e",
          "transactionHash": "0xe550ea678fa98e38c0a6a62378cb12965cbf91bd538624b366c0a253ee9d7f06",
          "transactionIndex": "0x19",
          "logIndex": "0x126",
          "removed": false
        }
      ],
      "logsBloom": "0x00000000000000000000000000000000000000000000000000000000000000000000000000000000000000000000000000000000000000000000000000000000000000000000000000000000000000000000000000000000000000000000000000000000000000000000000000000000010000000000000000000000000000000000000000000000000000000000002000000000000000000000000000000004000000000000000000000000000000000000000000000000000000000000000000000000000000000400000000000000000000000000000000000000000000000000000000000200000000000040000000000000000000000000000000000000",
      "type": "0x0",
      "transactionHash": "0xe550ea678fa98e38c0a6a62378cb12965cbf91bd538624b366c0a253ee9d7f06",
      "transactionIndex": "0x19",
      "blockHash": "0xd0b19b8fc91c29bcfb267e15a5d2ec306ebcfddf85d9970e16b03cf5ca0a23b3",
      "blockNumber": "0x1bd4e9e",
      "gasUsed": "0x76b6",
      "effectiveGasPrice": "0xf429a",
      "from": "0x95d94e5370d9c2522dd6a4d7e670f3ec582643b1",
      "to": "0x1c4d0595017e9840a3e79ab5ba629836c4f8bd92",
      "contractAddress": null,
      "l1BaseFeeScalar": "0x44d",
      "l1BlobBaseFee": "0x1",
      "l1BlobBaseFeeScalar": "0xa118b",
      "l1Fee": "0x23d661",
      "l1GasPrice": "0xa4cf1",
      "l1GasUsed": "0xc57"
    }
  ],
  "libraries": [],
  "pending": [],
  "returns": {},
  "timestamp": 1754135581,
  "chain": 84532,
  "commit": "9bbbb2d"
}