{
  "transactions": [
    {
      "hash": "0xf7898ea83d1b03766c2e2cd6145deb2c54c2f33e2aff7470cdee458d4c39b922",
      "transactionType": "CALL",
      "contractName": null,
      "contractAddress": "0x1c4d0595017e9840a3e79ab5ba629836c4f8bd92",
      "function": "emitEvent((bytes32,bytes32,uint256,uint256,uint256,uint256,uint256,uint256),(uint256,uint256,uint256,uint256,uint256))",
      "arguments": [
        "(0xa99079cb053e64745e1bd02ffc41472f8889439ea0779a5becb5401e6fcb3b66, 0x609866eed0ee44c665ab053ebf21ee8344126e779653885c49e4e492bbc9d80d, 855485709712576571314153976753789112235418076081, 855485709712576571314153976753789112235418076081, 19551945435078646265689162860222206903555313534, 5000000, 1000000000000000, 47291395213364154367435754696454309438374921368262310772935324939735992893440)",
        "(855485709712576571314153976753789112235418076081, 9500000, 0, 1000000000000000, 1440002)"
      ],
      "transaction": {
        "from": "0x95d94e5370d9c2522dd6a4d7e670f3ec582643b1",
        "to": "0x1c4d0595017e9840a3e79ab5ba629836c4f8bd92",
        "gas": "0xa040",
        "value": "0x0",
        "input": "0x39e067eba99079cb053e64745e1bd02ffc41472f8889439ea0779a5becb5401e6fcb3b66609866eed0ee44c665ab053ebf21ee8344126e779653885c49e4e492bbc9d80d00000000000000000000000095d94e5370d9c2522dd6a4d7e670f3ec582643b100000000000000000000000095d94e5370d9c2522dd6a4d7e670f3ec582643b1000000000000000000000000036cbd53842c5426634e7929541ec2318f3dcf7e00000000000000000000000000000000000000000000000000000000004c4b4000000000000000000000000000000000000000000000000000038d7ea4c68000688dfb2c0000000000000000000000000000000000000000000000000000000000000000000000000000000095d94e5370d9c2522dd6a4d7e670f3ec582643b1000000000000000000000000000000000000000000000000000000000090f560000000000000000000000000000000000000000000000000000000000000000000000000000000000000000000000000000000000000000000038d7ea4c68000000000000000000000000000000000000000000000000000000000000015f902",
        "nonce": "0xe",
        "chainId": "0x14a34"
      },
      "additionalContracts": [],
      "isFixedGasLimit": false
    }
  ],
  "receipts": [
    {
      "status": "0x1",
      "cumulativeGasUsed": "0x51ebbc",
      "logs": [
        {
          "address": "0x1c4d0595017e9840a3e79ab5ba629836c4f8bd92",
          "topics": [
            "0x0e534c62f0afd2fa0f0fa71198e8aa2d549f24daf2bb47de0d5486c7ce9288ca"
          ],
          "data": "0xa99079cb053e64745e1bd02ffc41472f8889439ea0779a5becb5401e6fcb3b66609866eed0ee44c665ab053ebf21ee8344126e779653885c49e4e492bbc9d80d00000000000000000000000095d94e5370d9c2522dd6a4d7e670f3ec582643b100000000000000000000000095d94e5370d9c2522dd6a4d7e670f3ec582643b1000000000000000000000000036cbd53842c5426634e7929541ec2318f3dcf7e00000000000000000000000000000000000000000000000000000000004c4b4000000000000000000000000000000000000000000000000000038d7ea4c68000688dfb2c0000000000000000000000000000000000000000000000000000000000000000000000000000000095d94e5370d9c2522dd6a4d7e670f3ec582643b1000000000000000000000000000000000000000000000000000000000090f560000000000000000000000000000000000000000000000000000000000000000000000000000000000000000000000000000000000000000000038d7ea4c68000000000000000000000000000000000000000000000000000000000000015f902",
          "blockHash": "0x3b787ef1632fea093227386af4b3428c79315c2ba3766404e7dd4c9a969cbb12",
          "blockNumber": "0x1bd4e29",
          "blockTimestamp": "0x688dfb32",
          "transactionHash": "0xf7898ea83d1b03766c2e2cd6145deb2c54c2f33e2aff7470cdee458d4c39b922",
          "transactionIndex": "0x17",
          "logIndex": "0xa3",
          "removed": false
        }
      ],
      "logsBloom": "0x00000000000000000000000000000000000000000000000000000000000000000000000000000000000000000000000000000000000000000000000000000000000000000000000000000000000000000000000000000000000000000000000000000000000000000000000000000000010000000000000000000000000000000000000000000000000000000000002000000000000000000000000000000004000000000000000000000000000000000000000000000000000000000000000000000000000000000400000000000000000000000000000000000000000000000000000000000200000000000040000000000000000000000000000000000000",
      "type": "0x0",
      "transactionHash": "0xf7898ea83d1b03766c2e2cd6145deb2c54c2f33e2aff7470cdee458d4c39b922",
      "transactionIndex": "0x17",
      "blockHash": "0x3b787ef1632fea093227386af4b3428c79315c2ba3766404e7dd4c9a969cbb12",
      "blockNumber": "0x1bd4e29",
      "gasUsed": "0x76b6",
      "effectiveGasPrice": "0xf429a",
      "from": "0x95d94e5370d9c2522dd6a4d7e670f3ec582643b1",
      "to": "0x1c4d0595017e9840a3e79ab5ba629836c4f8bd92",
      "contractAddress": null,
      "l1BaseFeeScalar": "0x44d",
      "l1BlobBaseFee": "0x1",
      "l1BlobBaseFeeScalar": "0xa118b",
      "l1Fee": "0x4eae0f",
      "l1GasPrice": "0x169d7f",
      "l1GasUsed": "0xc57"
    }
  ],
  "libraries": [],
  "pending": [],
  "returns": {},
  "timestamp": 1754135345,
  "chain": 84532,
  "commit": "9bbbb2d"
}