{
  "transactions": [
    {
      "hash": "0x7b3e5cfb46b68c15b100f2f5b7cfd14e606322d82fde6ae405ee5a608474e1f3",
      "transactionType": "CALL",
      "contractName": null,
      "contractAddress": "0x1c4d0595017e9840a3e79ab5ba629836c4f8bd92",
      "function": "emitEvent((bytes32,bytes32,uint256,uint256,uint256,uint256,uint256,uint256),(uint256,uint256,uint256,uint256,uint256))",
      "arguments": [
        "(0x098162f066a72799a191091f5e9e939a5de679f2b7debb7fbb6fca9e725645b5, 0x2c9ebc3d025008df975c5fbcd81a41a9a67b5f2afb6a81ac2303fc929be3954d, 855485709712576571314153976753789112235418076081, 855485709712576571314153976753789112235418076081, 19551945435078646265689162860222206903555313534, 5000000, 1000000000000000, 47291296216439992590286428679174909902291087772667991203953174327279157772288)",
        "(855485709712576571314153976753789112235418076081, 9500000, 0, 1000000000000000, 1440002)"
      ],
      "transaction": {
        "from": "0x95d94e5370d9c2522dd6a4d7e670f3ec582643b1",
        "to": "0x1c4d0595017e9840a3e79ab5ba629836c4f8bd92",
        "gas": "0xa040",
        "value": "0x0",
        "input": "0x39e067eb098162f066a72799a191091f5e9e939a5de679f2b7debb7fbb6fca9e725645b52c9ebc3d025008df975c5fbcd81a41a9a67b5f2afb6a81ac2303fc929be3954d00000000000000000000000095d94e5370d9c2522dd6a4d7e670f3ec582643b100000000000000000000000095d94e5370d9c2522dd6a4d7e670f3ec582643b1000000000000000000000000036cbd53842c5426634e7929541ec2318f3dcf7e00000000000000000000000000000000000000000000000000000000004c4b4000000000000000000000000000000000000000000000000000038d7ea4c68000688decd40000000000000000000000000000000000000000000000000000000000000000000000000000000095d94e5370d9c2522dd6a4d7e670f3ec582643b1000000000000000000000000000000000000000000000000000000000090f560000000000000000000000000000000000000000000000000000000000000000000000000000000000000000000000000000000000000000000038d7ea4c68000000000000000000000000000000000000000000000000000000000000015f902",
        "nonce": "0xd",
        "chainId": "0x14a34"
      },
      "additionalContracts": [],
      "isFixedGasLimit": false
    }
  ],
  "receipts": [
    {
      "status": "0x1",
      "cumulativeGasUsed": "0x567275",
      "logs": [
        {
          "address": "0x1c4d0595017e9840a3e79ab5ba629836c4f8bd92",
          "topics": [
            "0x0e534c62f0afd2fa0f0fa71198e8aa2d549f24daf2bb47de0d5486c7ce9288ca"
          ],
          "data": "0x098162f066a72799a191091f5e9e939a5de679f2b7debb7fbb6fca9e725645b52c9ebc3d025008df975c5fbcd81a41a9a67b5f2afb6a81ac2303fc929be3954d00000000000000000000000095d94e5370d9c2522dd6a4d7e670f3ec582643b100000000000000000000000095d94e5370d9c2522dd6a4d7e670f3ec582643b1000000000000000000000000036cbd53842c5426634e7929541ec2318f3dcf7e00000000000000000000000000000000000000000000000000000000004c4b4000000000000000000000000000000000000000000000000000038d7ea4c68000688decd40000000000000000000000000000000000000000000000000000000000000000000000000000000095d94e5370d9c2522dd6a4d7e670f3ec582643b1000000000000000000000000000000000000000000000000000000000090f560000000000000000000000000000000000000000000000000000000000000000000000000000000000000000000000000000000000000000000038d7ea4c68000000000000000000000000000000000000000000000000000000000000015f902",
          "blockHash": "0x6ded8c4656dbb9356ef08356da6f2946dcddcaabd5484c88868475f99091c43a",
          "blockNumber": "0x1bd46fd",
          "transactionHash": "0x7b3e5cfb46b68c15b100f2f5b7cfd14e606322d82fde6ae405ee5a608474e1f3",
          "transactionIndex": "0x12",
          "logIndex": "0xe7",
          "removed": false
        }
      ],
      "logsBloom": "0x00000000000000000000000000000000000000000000000000000000000000000000000000000000000000000000000000000000000000000000000000000000000000000000000000000000000000000000000000000000000000000000000000000000000000000000000000000000010000000000000000000000000000000000000000000000000000000000002000000000000000000000000000000004000000000000000000000000000000000000000000000000000000000000000000000000000000000400000000000000000000000000000000000000000000000000000000000200000000000040000000000000000000000000000000000000",
      "type": "0x0",
      "transactionHash": "0x7b3e5cfb46b68c15b100f2f5b7cfd14e606322d82fde6ae405ee5a608474e1f3",
      "transactionIndex": "0x12",
      "blockHash": "0x6ded8c4656dbb9356ef08356da6f2946dcddcaabd5484c88868475f99091c43a",
      "blockNumber": "0x1bd46fd",
      "gasUsed": "0x76b6",
      "effectiveGasPrice": "0xf4283",
      "from": "0x95d94e5370d9c2522dd6a4d7e670f3ec582643b1",
      "to": "0x1c4d0595017e9840a3e79ab5ba629836c4f8bd92",
      "contractAddress": null,
      "l1BaseFeeScalar": "0x44d",
      "l1BlobBaseFee": "0x1",
      "l1BlobBaseFeeScalar": "0xa118b",
      "l1Fee": "0x768948b",
      "l1GasPrice": "0x2212739",
      "l1GasUsed": "0xc57"
    }
  ],
  "libraries": [],
  "pending": [],
  "returns": {},
  "timestamp": 1754131674,
  "chain": 84532,
  "commit": "9bbbb2d"
}