{
  "transactions": [
    {
      "hash": "0x99cb7f5dfd30952767e8a14e066d645b7e6873f7ae361daf741f920c722b25c2",
      "transactionType": "CALL",
      "contractName": null,
      "contractAddress": "0x1c4d0595017e9840a3e79ab5ba629836c4f8bd92",
      "function": "emitEvent((bytes32,bytes32,uint256,uint256,uint256,uint256,uint256,uint256),(uint256,uint256,uint256,uint256,uint256))",
      "arguments": [
        "(0x0bc455be9e34e8088176d33ac753ae0954dfbdcffe9d27529b0a655ff7f80227, 0x1675ef6cc223f4d988bd7cb3901975ac0bf36ec75771e6982fc3bd3d0220372e, 855485709712576571314153976753789112235418076081, 855485709712576571314153976753789112235418076081, 19551945435078646265689162860222206903555313534, 5000000, 1000000000000000, 47291509900977276426257441209936489619883807020674684260530659554493993058304)",
        "(855485709712576571314153976753789112235418076081, 1700000, 0, 1000000000000000, 1440002)"
      ],
      "transaction": {
        "from": "0x95d94e5370d9c2522dd6a4d7e670f3ec582643b1",
        "to": "0x1c4d0595017e9840a3e79ab5ba629836c4f8bd92",
        "gas": "0xa040",
        "value": "0x0",
        "input": "0x39e067eb0bc455be9e34e8088176d33ac753ae0954dfbdcffe9d27529b0a655ff7f802271675ef6cc223f4d988bd7cb3901975ac0bf36ec75771e6982fc3bd3d0220372e00000000000000000000000095d94e5370d9c2522dd6a4d7e670f3ec582643b100000000000000000000000095d94e5370d9c2522dd6a4d7e670f3ec582643b1000000000000000000000000036cbd53842c5426634e7929541ec2318f3dcf7e00000000000000000000000000000000000000000000000000000000004c4b4000000000000000000000000000000000000000000000000000038d7ea4c68000688e0bca0000000000000000000000000000000000000000000000000000000000000000000000000000000095d94e5370d9c2522dd6a4d7e670f3ec582643b1000000000000000000000000000000000000000000000000000000000019f0a0000000000000000000000000000000000000000000000000000000000000000000000000000000000000000000000000000000000000000000038d7ea4c68000000000000000000000000000000000000000000000000000000000000015f902",
        "nonce": "0x15",
        "chainId": "0x14a34"
      },
      "additionalContracts": [],
      "isFixedGasLimit": false
    }
  ],
  "receipts": [
    {
      "status": "0x1",
      "cumulativeGasUsed": "0x356eac",
      "logs": [
        {
          "address": "0x1c4d0595017e9840a3e79ab5ba629836c4f8bd92",
          "topics": [
            "0x0e534c62f0afd2fa0f0fa71198e8aa2d549f24daf2bb47de0d5486c7ce9288ca"
          ],
          "data": "0x0bc455be9e34e8088176d33ac753ae0954dfbdcffe9d27529b0a655ff7f802271675ef6cc223f4d988bd7cb3901975ac0bf36ec75771e6982fc3bd3d0220372e00000000000000000000000095d94e5370d9c2522dd6a4d7e670f3ec582643b100000000000000000000000095d94e5370d9c2522dd6a4d7e670f3ec582643b1000000000000000000000000036cbd53842c5426634e7929541ec2318f3dcf7e00000000000000000000000000000000000000000000000000000000004c4b4000000000000000000000000000000000000000000000000000038d7ea4c68000688e0bca0000000000000000000000000000000000000000000000000000000000000000000000000000000095d94e5370d9c2522dd6a4d7e670f3ec582643b1000000000000000000000000000000000000000000000000000000000019f0a0000000000000000000000000000000000000000000000000000000000000000000000000000000000000000000000000000000000000000000038d7ea4c68000000000000000000000000000000000000000000000000000000000000015f902",
          "blockHash": "0x0f56e0d535173dbbdcfee499be6fa4e6de9cc7acf4fae809f687c5f6d82c30e2",
          "blockNumber": "0x1bd5678",
          "blockTimestamp": "0x688e0bd0",
          "transactionHash": "0x99cb7f5dfd30952767e8a14e066d645b7e6873f7ae361daf741f920c722b25c2",
          "transactionIndex": "0xc",
          "logIndex": "0x84",
          "removed": false
        }
      ],
      "logsBloom": "0x00000000000000000000000000000000000000000000000000000000000000000000000000000000000000000000000000000000000000000000000000000000000000000000000000000000000000000000000000000000000000000000000000000000000000000000000000000000010000000000000000000000000000000000000000000000000000000000002000000000000000000000000000000004000000000000000000000000000000000000000000000000000000000000000000000000000000000400000000000000000000000000000000000000000000000000000000000200000000000040000000000000000000000000000000000000",
      "type": "0x2",
      "transactionHash": "0x99cb7f5dfd30952767e8a14e066d645b7e6873f7ae361daf741f920c722b25c2",
      "transactionIndex": "0xc",
      "blockHash": "0x0f56e0d535173dbbdcfee499be6fa4e6de9cc7acf4fae809f687c5f6d82c30e2",
      "blockNumber": "0x1bd5678",
      "gasUsed": "0x76b6",
      "effectiveGasPrice": "0xf42a4",
      "from": "0x95d94e5370d9c2522dd6a4d7e670f3ec582643b1",
      "to": "0x1c4d0595017e9840a3e79ab5ba629836c4f8bd92",
      "contractAddress": null,
      "l1BaseFeeScalar": "0x44d",
      "l1BlobBaseFee": "0x1",
      "l1BlobBaseFeeScalar": "0xa118b",
      "l1Fee": "0x445442",
      "l1GasPrice": "0x13130d",
      "l1GasUsed": "0xcb5"
    }
  ],
  "libraries": [],
  "pending": [],
  "returns": {},
  "timestamp": 1754139599,
  "chain": 84532,
  "commit": "fb3a938"
}