{
  "transactions": [
    {
      "hash": "0xeb9acb61561f0911046cf76d9020b93603a4fa32162078257c625dffacde7582",
      "transactionType": "CALL",
      "contractName": null,
      "contractAddress": "0x1c4d0595017e9840a3e79ab5ba629836c4f8bd92",
      "function": "emitEvent((bytes32,bytes32,uint256,uint256,uint256,uint256,uint256,uint256),(uint256,uint256,uint256,uint256,uint256))",
      "arguments": [
        "(0xc7552a6467562d18602f76a01847fb632fba1409a90eed7dd46e5abf3e745787, 0x721bb11bbab3e372ddbb1a16bcb0b91baf4e1110fc31643835d51173aa9103a7, 855485709712576571314153976753789112235418076081, 855485709712576571314153976753789112235418076081, 19551945435078646265689162860222206903555313534, 5000000, 1000000000000000, 47291473343289595769989879641464031621264613568706847295514375177998495121408)",
        "(855485709712576571314153976753789112235418076081, 1700000, 0, 1000000000000000, 1440002)"
      ],
      "transaction": {
        "from": "0x95d94e5370d9c2522dd6a4d7e670f3ec582643b1",
        "to": "0x1c4d0595017e9840a3e79ab5ba629836c4f8bd92",
        "gas": "0xa040",
        "value": "0x0",
        "input": "0x39e067ebc7552a6467562d18602f76a01847fb632fba1409a90eed7dd46e5abf3e745787721bb11bbab3e372ddbb1a16bcb0b91baf4e1110fc31643835d51173aa9103a700000000000000000000000095d94e5370d9c2522dd6a4d7e670f3ec582643b100000000000000000000000095d94e5370d9c2522dd6a4d7e670f3ec582643b1000000000000000000000000036cbd53842c5426634e7929541ec2318f3dcf7e00000000000000000000000000000000000000000000000000000000004c4b4000000000000000000000000000000000000000000000000000038d7ea4c68000688e067e0000000000000000000000000000000000000000000000000000000000000000000000000000000095d94e5370d9c2522dd6a4d7e670f3ec582643b1000000000000000000000000000000000000000000000000000000000019f0a0000000000000000000000000000000000000000000000000000000000000000000000000000000000000000000000000000000000000000000038d7ea4c68000000000000000000000000000000000000000000000000000000000000015f902",
        "nonce": "0x14",
        "chainId": "0x14a34"
      },
      "additionalContracts": [],
      "isFixedGasLimit": false
    }
  ],
  "receipts": [
    {
      "status": "0x1",
      "cumulativeGasUsed": "0x2780a9",
      "logs": [
        {
          "address": "0x1c4d0595017e9840a3e79ab5ba629836c4f8bd92",
          "topics": [
            "0x0e534c62f0afd2fa0f0fa71198e8aa2d549f24daf2bb47de0d5486c7ce9288ca"
          ],
          "data": "0xc7552a6467562d18602f76a01847fb632fba1409a90eed7dd46e5abf3e745787721bb11bbab3e372ddbb1a16bcb0b91baf4e1110fc31643835d51173aa9103a700000000000000000000000095d94e5370d9c2522dd6a4d7e670f3ec582643b100000000000000000000000095d94e5370d9c2522dd6a4d7e670f3ec582643b1000000000000000000000000036cbd53842c5426634e7929541ec2318f3dcf7e00000000000000000000000000000000000000000000000000000000004c4b4000000000000000000000000000000000000000000000000000038d7ea4c68000688e067e0000000000000000000000000000000000000000000000000000000000000000000000000000000095d94e5370d9c2522dd6a4d7e670f3ec582643b1000000000000000000000000000000000000000000000000000000000019f0a0000000000000000000000000000000000000000000000000000000000000000000000000000000000000000000000000000000000000000000038d7ea4c68000000000000000000000000000000000000000000000000000000000000015f902",
          "blockHash": "0xcde7115699a9100f2216bb732fdd223ad5829f7ffe0d7bf01cd51819bd5e8b0b",
          "blockNumber": "0x1bd53d2",
          "blockTimestamp": "0x688e0684",
          "transactionHash": "0xeb9acb61561f0911046cf76d9020b93603a4fa32162078257c625dffacde7582",
          "transactionIndex": "0x6",
          "logIndex": "0x7a",
          "removed": false
        }
      ],
      "logsBloom": "0x00000000000000000000000000000000000000000000000000000000000000000000000000000000000000000000000000000000000000000000000000000000000000000000000000000000000000000000000000000000000000000000000000000000000000000000000000000000010000000000000000000000000000000000000000000000000000000000002000000000000000000000000000000004000000000000000000000000000000000000000000000000000000000000000000000000000000000400000000000000000000000000000000000000000000000000000000000200000000000040000000000000000000000000000000000000",
      "type": "0x0",
      "transactionHash": "0xeb9acb61561f0911046cf76d9020b93603a4fa32162078257c625dffacde7582",
      "transactionIndex": "0x6",
      "blockHash": "0xcde7115699a9100f2216bb732fdd223ad5829f7ffe0d7bf01cd51819bd5e8b0b",
      "blockNumber": "0x1bd53d2",
      "gasUsed": "0x76b6",
      "effectiveGasPrice": "0xf42b6",
      "from": "0x95d94e5370d9c2522dd6a4d7e670f3ec582643b1",
      "to": "0x1c4d0595017e9840a3e79ab5ba629836c4f8bd92",
      "contractAddress": null,
      "l1BaseFeeScalar": "0x44d",
      "l1BlobBaseFee": "0x1",
      "l1BlobBaseFeeScalar": "0xa118b",
      "l1Fee": "0x648c5e",
      "l1GasPrice": "0x1d0626",
      "l1GasUsed": "0xc4a"
    }
  ],
  "libraries": [],
  "pending": [],
  "returns": {},
  "timestamp": 1754138244,
  "chain": 84532,
  "commit": "fb3a938"
}