{
  "transactions": [
    {
      "hash": "0x4bb7e553a4da902bb26dac9daf235406aaecf944232a7b5937a975716418920a",
      "transactionType": "CALL",
      "contractName": null,
      "contractAddress": "0x1c4d0595017e9840a3e79ab5ba629836c4f8bd92",
      "function": "emitEvent((bytes32,bytes32,uint256,uint256,uint256,uint256,uint256,uint256),(uint256,uint256,uint256,uint256,uint256))",
      "arguments": [
        "(0xc8b265144e2727f3693c18af6f62980cec07a12ea434d2d33bb29819f8fb5fa8, 0x2d082c11b60205ed3085392b918460f06bdcdbbc522a32f4f21229bf4b1d291b, 855485709712576571314153976753789112235418076081, 855485709712576571314153976753789112235418076081, 19551945435078646265689162860222206903555313534, 5000000, 1000000000000000, 47291515131206929853481561375337416501692157706280702233401720888594381406208)",
        "(855485709712576571314153976753789112235418076081, 1700000, 0, 1000000000000000, 1440002)"
      ],
      "transaction": {
        "from": "0x95d94e5370d9c2522dd6a4d7e670f3ec582643b1",
        "to": "0x1c4d0595017e9840a3e79ab5ba629836c4f8bd92",
        "gas": "0xa040",
        "value": "0x0",
        "input": "0x39e067ebc8b265144e2727f3693c18af6f62980cec07a12ea434d2d33bb29819f8fb5fa82d082c11b60205ed3085392b918460f06bdcdbbc522a32f4f21229bf4b1d291b00000000000000000000000095d94e5370d9c2522dd6a4d7e670f3ec582643b100000000000000000000000095d94e5370d9c2522dd6a4d7e670f3ec582643b1000000000000000000000000036cbd53842c5426634e7929541ec2318f3dcf7e00000000000000000000000000000000000000000000000000000000004c4b4000000000000000000000000000000000000000000000000000038d7ea4c68000688e0c8c0000000000000000000000000000000000000000000000000000000000000000000000000000000095d94e5370d9c2522dd6a4d7e670f3ec582643b1000000000000000000000000000000000000000000000000000000000019f0a0000000000000000000000000000000000000000000000000000000000000000000000000000000000000000000000000000000000000000000038d7ea4c68000000000000000000000000000000000000000000000000000000000000015f902",
        "nonce": "0x16",
        "chainId": "0x14a34"
      },
      "additionalContracts": [],
      "isFixedGasLimit": false
    }
  ],
  "receipts": [
    {
      "status": "0x1",
      "cumulativeGasUsed": "0x1a3b3d",
      "logs": [
        {
          "address": "0x1c4d0595017e9840a3e79ab5ba629836c4f8bd92",
          "topics": [
            "0x0e534c62f0afd2fa0f0fa71198e8aa2d549f24daf2bb47de0d5486c7ce9288ca"
          ],
          "data": "0xc8b265144e2727f3693c18af6f62980cec07a12ea434d2d33bb29819f8fb5fa82d082c11b60205ed3085392b918460f06bdcdbbc522a32f4f21229bf4b1d291b00000000000000000000000095d94e5370d9c2522dd6a4d7e670f3ec582643b100000000000000000000000095d94e5370d9c2522dd6a4d7e670f3ec582643b1000000000000000000000000036cbd53842c5426634e7929541ec2318f3dcf7e00000000000000000000000000000000000000000000000000000000004c4b4000000000000000000000000000000000000000000000000000038d7ea4c68000688e0c8c0000000000000000000000000000000000000000000000000000000000000000000000000000000095d94e5370d9c2522dd6a4d7e670f3ec582643b1000000000000000000000000000000000000000000000000000000000019f0a0000000000000000000000000000000000000000000000000000000000000000000000000000000000000000000000000000000000000000000038d7ea4c68000000000000000000000000000000000000000000000000000000000000015f902",
          "blockHash": "0x03964a8a9627e61b190d7ccb2143e9923a50b5ef0a0f5d02d435d3c795a1226b",
          "blockNumber": "0x1bd56d9",
          "transactionHash": "0x4bb7e553a4da902bb26dac9daf235406aaecf944232a7b5937a975716418920a",
          "transactionIndex": "0x5",
          "logIndex": "0x54",
          "removed": false
        }
      ],
      "logsBloom": "0x00000000000000000000000000000000000000000000000000000000000000000000000000000000000000000000000000000000000000000000000000000000000000000000000000000000000000000000000000000000000000000000000000000000000000000000000000000000010000000000000000000000000000000000000000000000000000000000002000000000000000000000000000000004000000000000000000000000000000000000000000000000000000000000000000000000000000000400000000000000000000000000000000000000000000000000000000000200000000000040000000000000000000000000000000000000",
      "type": "0x0",
      "transactionHash": "0x4bb7e553a4da902bb26dac9daf235406aaecf944232a7b5937a975716418920a",
      "transactionIndex": "0x5",
      "blockHash": "0x03964a8a9627e61b190d7ccb2143e9923a50b5ef0a0f5d02d435d3c795a1226b",
      "blockNumber": "0x1bd56d9",
      "gasUsed": "0x76b6",
      "effectiveGasPrice": "0xf429f",
      "from": "0x95d94e5370d9c2522dd6a4d7e670f3ec582643b1",
      "to": "0x1c4d0595017e9840a3e79ab5ba629836c4f8bd92",
      "contractAddress": null,
      "l1BaseFeeScalar": "0x44d",
      "l1BlobBaseFee": "0x1",
      "l1BlobBaseFeeScalar": "0xa118b",
      "l1Fee": "0x297c66",
      "l1GasPrice": "0xbec96",
      "l1GasUsed": "0xc57"
    }
  ],
  "libraries": [],
  "pending": [],
  "returns": {},
  "timestamp": 1754139794,
  "chain": 84532,
  "commit": "fb3a938"
}