{
  "transactions": [
    {
      "hash": "0xe5a4919eb580f5a74b4a06ecb0b25e055abc94e738d9823e6fdb7a1630f75e8d",
      "transactionType": "CALL",
      "contractName": null,
      "contractAddress": "0x1c4d0595017e9840a3e79ab5ba629836c4f8bd92",
      "function": "emitEvent((bytes32,bytes32,uint256,uint256,uint256,uint256,uint256,uint256),(uint256,uint256,uint256,uint256,uint256))",
      "arguments": [
        "(0x9babc19247a2a280d15a63bbb63cd621770867c75ec889757133563dccbd1b10, 0xaa566308d6094ae71795e5a0684264f85fb2e3f32d258c257316b4cc400ebbdf, 855485709712576571314153976753789112235418076081, 855485709712576571314153976753789112235418076081, 19551945435078646265689162860222206903555313534, 5000000, 1000000000000000, 47291277398397218919139852001598379162588877573941184270633582516959203819520)",
        "(855485709712576571314153976753789112235418076081, 9500000, 0, 1000000000000000, 1440002)"
      ],
      "transaction": {
        "from": "0x95d94e5370d9c2522dd6a4d7e670f3ec582643b1",
        "to": "0x1c4d0595017e9840a3e79ab5ba629836c4f8bd92",
        "gas": "0xa040",
        "value": "0x0",
        "input": "0x39e067eb9babc19247a2a280d15a63bbb63cd621770867c75ec889757133563dccbd1b10aa566308d6094ae71795e5a0684264f85fb2e3f32d258c257316b4cc400ebbdf00000000000000000000000095d94e5370d9c2522dd6a4d7e670f3ec582643b100000000000000000000000095d94e5370d9c2522dd6a4d7e670f3ec582643b1000000000000000000000000036cbd53842c5426634e7929541ec2318f3dcf7e00000000000000000000000000000000000000000000000000000000004c4b4000000000000000000000000000000000000000000000000000038d7ea4c68000688dea1a0000000000000000000000000000000000000000000000000000000000000000000000000000000095d94e5370d9c2522dd6a4d7e670f3ec582643b1000000000000000000000000000000000000000000000000000000000090f560000000000000000000000000000000000000000000000000000000000000000000000000000000000000000000000000000000000000000000038d7ea4c68000000000000000000000000000000000000000000000000000000000000015f902",
        "nonce": "0x9",
        "chainId": "0x14a34"
      },
      "additionalContracts": [],
      "isFixedGasLimit": false
    }
  ],
  "receipts": [
    {
      "status": "0x1",
      "cumulativeGasUsed": "0x45137c",
      "logs": [
        {
          "address": "0x1c4d0595017e9840a3e79ab5ba629836c4f8bd92",
          "topics": [
            "0x0e534c62f0afd2fa0f0fa71198e8aa2d549f24daf2bb47de0d5486c7ce9288ca"
          ],
          "data": "0x9babc19247a2a280d15a63bbb63cd621770867c75ec889757133563dccbd1b10aa566308d6094ae71795e5a0684264f85fb2e3f32d258c257316b4cc400ebbdf00000000000000000000000095d94e5370d9c2522dd6a4d7e670f3ec582643b100000000000000000000000095d94e5370d9c2522dd6a4d7e670f3ec582643b1000000000000000000000000036cbd53842c5426634e7929541ec2318f3dcf7e00000000000000000000000000000000000000000000000000000000004c4b4000000000000000000000000000000000000000000000000000038d7ea4c68000688dea1a0000000000000000000000000000000000000000000000000000000000000000000000000000000095d94e5370d9c2522dd6a4d7e670f3ec582643b1000000000000000000000000000000000000000000000000000000000090f560000000000000000000000000000000000000000000000000000000000000000000000000000000000000000000000000000000000000000000038d7ea4c68000000000000000000000000000000000000000000000000000000000000015f902",
          "blockHash": "0x73cc387f618e2a46cce6396ffe578338b41034bd9373561ea71d52384870dbcc",
          "blockNumber": "0x1bd45a0",
          "blockTimestamp": "0x688dea20",
          "transactionHash": "0xe5a4919eb580f5a74b4a06ecb0b25e055abc94e738d9823e6fdb7a1630f75e8d",
          "transactionIndex": "0x12",
          "logIndex": "0x9e",
          "removed": false
        }
      ],
      "logsBloom": "0x00000000000000000000000000000000000000000000000000000000000000000000000000000000000000000000000000000000000000000000000000000000000000000000000000000000000000000000000000000000000000000000000000000000000000000000000000000000010000000000000000000000000000000000000000000000000000000000002000000000000000000000000000000004000000000000000000000000000000000000000000000000000000000000000000000000000000000400000000000000000000000000000000000000000000000000000000000200000000000040000000000000000000000000000000000000",
      "type": "0x0",
      "transactionHash": "0xe5a4919eb580f5a74b4a06ecb0b25e055abc94e738d9823e6fdb7a1630f75e8d",
      "transactionIndex": "0x12",
      "blockHash": "0x73cc387f618e2a46cce6396ffe578338b41034bd9373561ea71d52384870dbcc",
      "blockNumber": "0x1bd45a0",
      "gasUsed": "0x76b6",
      "effectiveGasPrice": "0xf4281",
      "from": "0x95d94e5370d9c2522dd6a4d7e670f3ec582643b1",
      "to": "0x1c4d0595017e9840a3e79ab5ba629836c4f8bd92",
      "contractAddress": null,
      "l1BaseFeeScalar": "0x44d",
      "l1BlobBaseFee": "0x1",
      "l1BlobBaseFeeScalar": "0xa118b",
      "l1Fee": "0x3edabe8",
      "l1GasPrice": "0x12111ef",
      "l1GasUsed": "0xc57"
    }
  ],
  "libraries": [],
  "pending": [],
  "returns": {},
  "timestamp": 1754130975,
  "chain": 84532,
  "commit": "9bbbb2d"
}