{
  "transactions": [
    {
      "hash": "0x134296388cc14f842baf7e80727a07e277662901705e55b1515a44f30039940c",
      "transactionType": "CALL",
      "contractName": null,
      "contractAddress": "0x1c4d0595017e9840a3e79ab5ba629836c4f8bd92",
      "function": "emitEvent((bytes32,bytes32,uint256,uint256,uint256,uint256,uint256,uint256),(uint256,uint256,uint256,uint256,uint256))",
      "arguments": [
        "(0x1ee3dae4fea1b76b74f215025f6fb8c9d7a3447542c10afa6ea9ef6e2e4429ef, 0xcae36a6a44328f3fb063df12b0cf3fa225a3c6dbdd6acef0f6e619d33890cf24, 855485709712576571314153976753789112235418076081, 855485709712576571314153976753789112235418076081, 19551945435078646265689162860222206903555313534, 5000000, 1000000000000000, 47291841993600322387838431918228331527694444883019681115302481788765042900992)",
        "(855485709712576571314153976753789112235418076081, 1800000, 0, 1000000000000000, 1440002)"
      ],
      "transaction": {
        "from": "0x95d94e5370d9c2522dd6a4d7e670f3ec582643b1",
        "to": "0x1c4d0595017e9840a3e79ab5ba629836c4f8bd92",
        "gas": "0xa040",
        "value": "0x0",
        "input": "0x39e067eb1ee3dae4fea1b76b74f215025f6fb8c9d7a3447542c10afa6ea9ef6e2e4429efcae36a6a44328f3fb063df12b0cf3fa225a3c6dbdd6acef0f6e619d33890cf2400000000000000000000000095d94e5370d9c2522dd6a4d7e670f3ec582643b100000000000000000000000095d94e5370d9c2522dd6a4d7e670f3ec582643b1000000000000000000000000036cbd53842c5426634e7929541ec2318f3dcf7e00000000000000000000000000000000000000000000000000000000004c4b4000000000000000000000000000000000000000000000000000038d7ea4c68000688e3be80000000000000000000000000000000000000000000000000000000000000000000000000000000095d94e5370d9c2522dd6a4d7e670f3ec582643b100000000000000000000000000000000000000000000000000000000001b7740000000000000000000000000000000000000000000000000000000000000000000000000000000000000000000000000000000000000000000038d7ea4c68000000000000000000000000000000000000000000000000000000000000015f902",
        "nonce": "0x38",
        "chainId": "0x14a34"
      },
      "additionalContracts": [],
      "isFixedGasLimit": false
    }
  ],
  "receipts": [
    {
      "status": "0x1",
      "cumulativeGasUsed": "0x289638",
      "logs": [
        {
          "address": "0x1c4d0595017e9840a3e79ab5ba629836c4f8bd92",
          "topics": [
            "0x0e534c62f0afd2fa0f0fa71198e8aa2d549f24daf2bb47de0d5486c7ce9288ca"
          ],
          "data": "0x1ee3dae4fea1b76b74f215025f6fb8c9d7a3447542c10afa6ea9ef6e2e4429efcae36a6a44328f3fb063df12b0cf3fa225a3c6dbdd6acef0f6e619d33890cf2400000000000000000000000095d94e5370d9c2522dd6a4d7e670f3ec582643b100000000000000000000000095d94e5370d9c2522dd6a4d7e670f3ec582643b1000000000000000000000000036cbd53842c5426634e7929541ec2318f3dcf7e00000000000000000000000000000000000000000000000000000000004c4b4000000000000000000000000000000000000000000000000000038d7ea4c68000688e3be80000000000000000000000000000000000000000000000000000000000000000000000000000000095d94e5370d9c2522dd6a4d7e670f3ec582643b100000000000000000000000000000000000000000000000000000000001b7740000000000000000000000000000000000000000000000000000000000000000000000000000000000000000000000000000000000000000000038d7ea4c68000000000000000000000000000000000000000000000000000000000000015f902",
          "blockHash": "0x26952f004421e485fe805ba7fe826e21d045dfbe6f6098129d39f81c7fa1849e",
          "blockNumber": "0x1bd6e87",
          "blockTimestamp": "0x688e3bee",
          "transactionHash": "0x134296388cc14f842baf7e80727a07e277662901705e55b1515a44f30039940c",
          "transactionIndex": "0x9",
          "logIndex": "0x60",
          "removed": false
        }
      ],
      "logsBloom": "0x00000000000000000000000000000000000000000000000000000000000000000000000000000000000000000000000000000000000000000000000000000000000000000000000000000000000000000000000000000000000000000000000000000000000000000000000000000000010000000000000000000000000000000000000000000000000000000000002000000000000000000000000000000004000000000000000000000000000000000000000000000000000000000000000000000000000000000400000000000000000000000000000000000000000000000000000000000200000000000040000000000000000000000000000000000000",
      "type": "0x2",
      "transactionHash": "0x134296388cc14f842baf7e80727a07e277662901705e55b1515a44f30039940c",
      "transactionIndex": "0x9",
      "blockHash": "0x26952f004421e485fe805ba7fe826e21d045dfbe6f6098129d39f81c7fa1849e",
      "blockNumber": "0x1bd6e87",
      "gasUsed": "0x76b6",
      "effectiveGasPrice": "0xf4281",
      "from": "0x95d94e5370d9c2522dd6a4d7e670f3ec582643b1",
      "to": "0x1c4d0595017e9840a3e79ab5ba629836c4f8bd92",
      "contractAddress": null,
      "l1BaseFeeScalar": "0x44d",
      "l1BlobBaseFee": "0x1",
      "l1BlobBaseFeeScalar": "0xa118b",
      "l1Fee": "0x118e70",
      "l1GasPrice": "0x4ebb8",
      "l1GasUsed": "0xca8"
    }
  ],
  "libraries": [],
  "pending": [],
  "returns": {},
  "timestamp": 1754151916,
  "chain": 84532,
  "commit": "43a9e2e"
}